S00B00005441532E7372656331
S11300000C942A000C9447000C9447000C9447006D
S11300100C9447000C9447000C9447000C94D909A5
S11300200C9447000C9447000C9447000C94470030
S11300300C9447000C9446020C9447000C9447001F
S11300400C9447000C9447000C9447000C94470010
S11300500C94470011241FBECFE5D8E0DEBFCDBF0E
S113006011E0A0E6B0E0E4E6F4E302C005900D92EE
S1130070A83CB107D9F717E0A8ECB1E001C01D9284
S1130080A334B107E1F70E9483170C94301A0C943F
S1130090000087B18F73806487B986B1876086B9A1
S11300A0379A08958F7197B1907E892B87B9369AC4
S11300B086B186FDFDCF84B195B108954BB321E09F
S11300C030E0B90102C0660F771F8A95E2F7CB01D1
S11300D0842B8BBB08959BB321E030E002C0220F38
S11300E0331F8A95E2F7209592239BBB08959AB318
S11300F041E050E09A01082E02C0220F331F0A94F7
S1130100E2F7292B2ABB0E946B0008954BB321E030
S113011030E0B90102C0660F771F8A95E2F7CB0180
S113012084278BBB08959BB3892B8BBB08959BB30A
S1130130809598239BBB08959AB3982B9ABB0E94F1
S1130140970008959BB389278BBB08958BB38FEFDA
S11301508BBB08958BB31BBA08958AB38FEF8ABB08
S11301600E94AA0008958BB380958BBB089541B378
S113017021E030E0B90102C0660F771F8A95E2F7EB
S1130180CB01962F9095492341BB22B3822B82BB8E
S1130190089520B330E002C0359527958A95E2F79B
S11301A081E020FD80E00895979A08959798089536
S11301B08F9A0E94D600089582B3805882BB089516
S11301C020E18030920748F4E199FECF9FBB8EBBBB
S11301D06DBBE29AE19A81E0089580E0089520E100
S11301E08030920750F4E199FECF9FBB8EBBE09A1A
S11301F08DB3FB01808381E0089580E00895FF9230
S11302000F931F93CF93DF930F92CDB7DEB78C017B
S1130210F62EBE016F5F7F4F0E94EF0089818F151C
S113022069F080E10030180758F4E199FECF1FBB54
S11302300EBBFDBAE29AE19A81E003C080E001C0FE
S113024080E00F90DF91CF911F910F91FF9008955F
S1130250C09AC0980895CF93C82FC198982F907FC3
S113026085B38F70892B85BB0E942801C295C07FFE
S113027085B38F70C82BC5BB0E9428018AE68A9576
S1130280F1F700C0CF910895813029F4862F815869
S11302900E942B010895862F81540E942B010895FA
S11302A0CF93C82FC19A982F907F85B38F70892BD5
S11302B085BB0E942801C295C07F85B38F70C82B6F
S11302C0C5BB0E9428018AE68A95F1F700C0CF9148
S11302D0089581E00E942B018FE097E20197F1F7E6
S11302E000C00000089584B3806F84BBB99AB89AA3
S11302F08FEF90E7A2E081509040A040E1F700C06A
S1130300000082E00E942B0188E20E942B018CE015
S11303100E942B0186E00E942B010E94690108952E
S11303200E94500108950F931F93CF938C01FC01F9
S11303308081882351F0C0E00E945001CF5FF80112
S1130340EC0FF11D80818823B9F7CF911F910F9194
S11303500895CF93C42F0E9444018C2F0E949001D2
S1130360CF910895CF93DF93EA010E944401CE0117
S11303700E949301DF91CF9108950F931F93CF9320
S1130380DF93CDB7DEB72B970FB6F894DEBF0FBE61
S1130390CDBFDC01CB018E010F5F1F4F2BE0F801B5
S11303A011922A95E9F7B8014AE050E00E94EB194E
S11303B0C8010E9493012B960FB6F894DEBF0FBEBE
S11303C0CDBFDF91CF911F910F910895CF92DF920E
S11303D0EF92FF9269017A010E944401C701B601BC
S11303E00E94BD01FF90EF90DF90CF900895DC0153
S11303F0CB01880F991FAA1FBB1F880F991FAA1F23
S1130400BB1F9C01AD01220F331F441F551F220F38
S1130410331F441F551F60E072E18AE790E00E9499
S1130420A519DA01C9010197A109B10920B52F77EE
S113043020BD492F5A2F6B2F772740BD89B988E1FA
S11304408AB986E880BD08955D9BFECF8CB9089576
S11304505F9BFECF2CB1FC01208308955F9B05C0F8
S11304602CB1FC01208381E0089580E00895CF93AE
S1130470DF93EC018881882331F021960E942402C5
S113048089918823D9F7DF91CF9108951F920F9214
S11304900FB60F9211242F933F934F935F936F9353
S11304A07F938F939F93AF93BF93EF93FF934CB13D
S11304B082E090E065E070E050E00E94A901FF91C5
S11304C0EF91BF91AF919F918F917F916F915F91C8
S11304D04F913F912F910F900FBE0F901F90189541
S11304E0AF92BF92CF92DF92EF92FF920F931F933E
S11304F0CF93DF936C01E62EF42E8AE190E00E9404
S113050035068C01009709F462C08091C80190916E
S1130510C901009739F51093C9010093C801CBECC8
S1130520D1E0CE010E941107CE0109960E94110765
S1130530CDEDD1E0CE010E9411070F2EF6EEAF2EC5
S1130540F1E0BF2EF02DC5010E9411078FEE91E05E
S11305500E941107D093F901C093F801B092FB01F6
S1130560A092FA01CE2DE110C1E0F801118E108E97
S1130570C68BF78AC192D1927F01CF010E941F07D7
S1130580C8010C960E941F07F80111870087138B7E
S1130590028B82E090E08C1B910995878487868981
S11305A09091CA01981710F48093CA0190E09C01BD
S11305B0220F331F220F331F220F331F820F931F6B
S11305C085539E4FB7010E94230781E001C08FEF3E
S11305D0DF91CF911F910F91FF90EF90DF90CF901B
S11305E0BF90AF9008950F931F93CF93DF938B0128
S11305F0C091FC01D091FD01C80FD91F8091C801A1
S11306009091C90102960E947407E091C801F0918B
S1130610C901D383C2838091FC019091FD01C81765
S1130620D90750F4BF016E5F7F4F8091FA0190911A
S1130630FB010E94420709C0BF016E5F7F4F80919A
S1130640F8019091F9010E9442070115110549F042
S11306506091C8017091C901645F7F4FC8010E9415
S11306604207DF91CF911F910F910895EF92FF926E
S11306700F931F93CF93DF938091EF01882391F120
S11306800F2EFFEEEF2EF1E0FF2EF02DF894E09107
S1130690F401F091F501C681D781CE010C960E9438
S11306A0740778948E010E5F1F4FC8010E9474076F
S11306B08E899091CA01981710F48093CA0190E032
S11306C09C01220F331F220F331F220F331F820F6F
S11306D0931F85539E4FB8010E942307F701808121
S11306E08823A1F60E94F2102091FE013091FF01AF
S11306F0821B930B909301028093000274C020919B
S1130700FC013091FD012F5F3F4F3093FD01209399
S1130710FC01019790930102809300022115310599
S113072081F48091F8019091F9012091FA013091BE
S1130730FB013093F9012093F8019093FB0180931E
S1130740FA01E091F801F091F9018081882309F41C
S11307504AC00580F681E02DC681D7812A813B817C
S11307608091FC019091FD018217930778F43BC0BE
S11307700580F681E02DC681D7812A813B81809155
S1130780FC019091FD018217930768F1F8948E01A2
S11307900E5F1F4FC8010E9474078C899D890097C2
S11307A021F0CE010C960E94740778948E89909162
S11307B0CA01981710F48093CA0190E09C01220F9B
S11307C0331F220F331F220F331F820F931F8553B2
S11307D09E4FB8010E942307E091F801F091F901BE
S11307E08081882329F6809100029091010200976C
S11307F009F085CF8091FC019091FD019093FF0158
S11308008093FE012091CA01822F90E0FC01EE0F3B
S1130810FF1FEE0FFF1FEE0FFF1FE80FF91FE55339
S1130820FE4F30813323D9F4222331F447C02223ED
S113083019F42093CA0142C02150822F90E0FC0198
S1130840EE0FFF1FEE0FFF1FEE0FFF1FE80FF91F44
S1130850E553FE4F3081332351F32093CA01FC0149
S1130860EE0FFF1FEE0FFF1FEE0FFF1F8E0F9F1FD8
S1130870FC01E553FE4FA181B28112960D90BC910B
S1130880A02DB283A183CF010396A817B90731F431
S113089012968D919C911397928381830180F281AA
S11308A0E02DA681B781B093C901A093C801ED9151
S11308B0FC911197CD0157966C910995DF91CF91D9
S11308C01F910F91FF90EF9008950F931F93CF9373
S11308D0DF93DC011596ED91FC9116970681178143
S11308E0E8012C96CE010E9474078FEE91E0BE01C0
S11308F00E942307E091C801F091C90181E0D80169
S113090056962C9156979689291708F480E0DF9122
S1130910CF911F910F910895442341F468237923C3
S113092081E06115710551F480E008959B0128234D
S1130930392381E06217730709F080E00895CF93AB
S1130940DF938BE090E00E943506EC01009731F0D4
S1130950FC0111921192CF010E9411078C2F9D2F3F
S1130960DF91CF910895AF92BF92CF92DF92EF9231
S1130970FF920F931F93CF93DF935C016B01E42EDF
S1130980F22E0E94EC10F501C081D181CE01B60196
S11309904F2D0E948C04882351F0EE2001F1C09465
S11309A0D094CC22DD22F501D182C08218C0011579
S11309B01105A9F0EE2019F460E070E002C060E0D7
S11309C071E0F11074606C297D29C5010296A801BB
S11309D00E9460130E94C411882339F404C00E9449
S11309E0C411CE0121C00E9423090E94EB14EC0122
S11309F091FD18C00FB6F8940F92F501C081D18112
S1130A00CE01B6014F2D0E948C04882349F0EE20BC
S1130A1039F0C094D094CC22DD22F501D182C08279
S1130A200F900FBECE019070DF91CF911F910F9167
S1130A30FF90EF90DF90CF90BF90AF900895FC01AE
S1130A400FB6F8940F928081918160957095682318
S1130A507923718360830F900FBE0895FC01808118
S1130A6091810895AF92BF92CF92DF92EF92FF925D
S1130A700F931F93CF93DF938C01EB010F2EF5E0BF
S1130A80CF2EDD24F02DC80ED91E0E94EC10D80103
S1130A901796ED91FC9118978D919C9111978C2B41
S1130AA09D2B11969C938E93CE16DF06C1F1AA243A
S1130AB0BB24FF24F394EE2401C0FE01C281D38140
S1130AC080819181BC0160709C01307092FD0BC0EB
S1130AD0D8018D919C911197822393234F2D0097D8
S1130AE069F44E2D0BC0D8018D919C9111978223EE
S1130AF093234F2D2817390709F04E2D442359F01D
S1130B0070FF02C0A22AB32AD8016D917C91726051
S1130B10CF010E94CF13CC16DD0679F602C0AA24B9
S1130B20BB24C50180959095F801A080B180A822CE
S1130B30B922B182A0820E94C411D8018C9111966D
S1130B409C911197DF91CF911F910F91FF90EF909E
S1130B50DF90CF90BF90AF900895AF92BF92CF92A5
S1130B60DF92EF92FF920F931F93CF93DF936C0169
S1130B70EB017A0159010E94EC10F6010081118108
S1130B80C601BE010E943205C02BD12BC7018C23A4
S1130B909D238E159F0551F480959095F601208133
S1130BA03181822393239183808312C0A114B104E1
S1130BB061F0B7017560C6010296A5010E94601339
S1130BC00E94C411882349F406C0F601C081D18172
S1130BD00E94C4111CC00E9423090E94EB1491FDC1
S1130BE014C00FB6F8940F92F60180819181970199
S1130BF0282339232E153F0531F4209530952823D9
S1130C003923318320830F900FBEEC01D0708C2FD9
S1130C109D2FDF91CF911F910F91FF90EF90DF9067
S1130C20CF90BF90AF900895CF93DF93EC010E94D3
S1130C30EC108A81882349F08F81988560E072E006
S1130C400E94CF138A818823B9F7CE010E946B06D4
S1130C500E94C411DF91CF910895BA010E94320518
S1130C600895BA010E941F050895CF93DF93EC0104
S1130C700E94EC108091020290910302009731F4DB
S1130C8085E092E090930302809302022091B406DF
S1130C903091B506CE01820F931F44E08F3A94073A
S1130CA070F42817390770F4C0910202D09103023E
S1130CB0C20FD31F9093B5068093B40605C0C0E05D
S1130CC0D0E002C0C0E0D0E00E94C4118C2F9D2F60
S1130CD0DF91CF91089508951092B5061092B4064D
S1130CE008952091B4063091B5068FEA94E0821BF2
S1130CF0930B0895CF93DF9300D000D0CDB7DEB728
S1130D001C0100E010E00F2EFBE78F2EF0E09F2E79
S1130D10F0E0AF2EF0E0BF2EF02D0F2EF7E0CF2E37
S1130D20F0E0DF2EF0E0EF2EF0E0FF2EF02D442473
S1130D30552443947724739401C0820189829A8252
S1130D40AB82BC8289819A81AB81BC81895B9B46E1
S1130D50AC4FBF4F89839A83AB83BC8389819A81CB
S1130D60AB81BC81AC01BD01440F551F661F771FC9
S1130D70440F551F661F771F841B950BA60BB70BDB
S1130D8089839A83AB83BC8369817A818B819C81BB
S1130D90A70196010E94C71929833A834B835C8378
S1130DA089819A81AB81BC818B3127E792072EEF31
S1130DB0A2072FEFB20709F60115110509F0BECFFE
S1130DC00FB6F8940F92F10170820F900FBEB6CF58
S1130DD0AF92BF92CF92DF92EF92FF920F93082FC0
S1130DE08AE796E060E670E045E550E026EB36E001
S1130DF0EE24FF24CC24DD24AA24BB240E94C40EA8
S1130E000F91FF90EF90DF90CF90BF90AF90089537
S1130E109091B6061092B60681E0992309F480E019
S1130E200895FC010396928381832FEF3FEF34836F
S1130E302383968385839087878310820895FC019A
S1130E40118610860895CF93DF93FB01DC01119680
S1130E50CD91DC911297D383C2832C813D8135835C
S1130E602483AC81BD8113967C936E9312977D830A
S1130E706C8391878087FC0120812F5F2083DF9121
S1130E80CF910895CF93DF93AC01EB012881398191
S1130E908FEF2F3F380721F4FA01A781B0850DC0E9
S1130EA0DA01139601C0DF011296ED91FC911397BC
S1130EB08081918128173907B0F71296ED91FC9142
S1130EC01397FB83EA83D583C483BD83AC831396D2
S1130ED0DC93CE93129759874887FA0180818F5FFC
S1130EE08083DF91CF910895CF93DF93FC01C08578
S1130EF0D185A281B3818481958115969C938E932B
S1130F001497A481B5818281938113969C938E93C7
S1130F101297A981BA81AE17BF0731F414968D9147
S1130F209C9115979A8389831186108688818150B4
S1130F308883DF91CF910895CF93DF9300D0CDB70D
S1130F40DEB77C011A82198210E000E0DD24D3941C
S1130F5021C0F70180819181BE016F5F7F4F40E026
S1130F6050E020E00E94360B813091F4002351F4CC
S1130F700FB6F8940F928091B7068F5F8093B706EF
S1130F800F900FBE89819A8101969A83898301C04B
S1130F900D2D1F5F1330ECF288EC90E00E94831259
S1130FA010E0F8CFCF93DF9300D0CDB7DEB78C013C
S1130FB0DD24EE24FF24CC24C39424C0F8018081D2
S1130FC09181BE016F5F7F4F40E050E020E00E94BE
S1130FD03F0C8130B9F489819A818E159F0569F49B
S1130FE0DD2061F40FB6F8940F922091B8062F5FBC
S1130FF02093B8060F900FBE01C0DC2C7C0108942E
S1131000E11CF11CF801808191810E94530D882319
S1131010A9F684EB90E00E948312F4CF8F929F9202
S1131020AF92BF92CF92DF92EF92FF920F93CF9342
S1131030C82F8AE062E040E00E94F90A9093BA0661
S11310408093B9060F2EF9EB8F2EF6E09F2EF02D2C
S113105082ED97E068E670E045E550E094010C2FDE
S1131060EE24FF24CC24DD24AA24BB240E94C40E35
S11310708CE997E060E770E045E550E094010E9458
S1131080C40ECF910F91FF90EF90DF90CF90BF905F
S1131090AF909F908F9008958091B806882339F07F
S11310A09091B70681E0992319F480E001C080E0B3
S11310B01092B8061092B706089521E1FC0120832E
S11310C0319732E23083FC013297A3E3A083FC0121
S11310D033976083FC0134977083FC013597108249
S11310E0FC01369760E86083FC0137971082FC01AD
S11310F0389762E06083FC01399763E06083FC0108
S11311003A9764E06083FC013B9765E06083FC01EF
S11311103C9766E06083FC013D9767E06083FC01D7
S11311203E9768E06083FC013F9769E06083FC01BF
S1131130709760E16083FC0171972083FC017297D2
S113114022E12083FC01739723E12083FC0174973F
S113115024E12083FC01759725E12083FC01769727
S113116026E12083FC01779727E12083FC0178970F
S113117028E12083FC01799729E12083FC017A97F7
S113118020E22083FC017B9721E22083FC017C97F1
S11311903083FC017D9723E22083FC017E9740830A
S11311A0FC017F975083FC01B09726E22083FC0169
S11311B0B19727E22083FC01B29728E22083FC0147
S11311C0B39729E22083FC01B49720E32083FC0138
S11311D0B59721E32083869708951BBC8CE78ABDCD
S11311E08BE08EBD89B7806189BFA091BB06B091A9
S11311F0BC06CD91CDBFDD91DEBFFF91EF91DF91B4
S1131200CF91BF91AF919F918F917F916F915F919A
S11312104F913F912F911F910F91FF90EF90DF908D
S1131220CF90BF90AF909F908F907F906F905F9082
S11312304F903F902F901F900F900FBE0F900895E6
S113124081E0089508950F920FB6F8940F921F92BB
S113125011242F923F924F925F926F927F928F92BE
S11312609F92AF92BF92CF92DF92EF92FF920F9331
S11312701F932F933F934F935F936F937F938F931A
S11312809F93AF93BF93CF93DF93EF93FF93A0917B
S1131290BB06B091BC060DB60D920EB60D920E941F
S11312A0E512A091BB06B091BC06CD91CDBFDD91F6
S11312B0DEBFFF91EF91DF91CF91BF91AF919F91ED
S11312C08F917F916F915F914F913F912F911F91DA
S11312D00F91FF90EF90DF90CF90BF90AF909F90D1
S11312E08F907F906F905F904F903F902F901F90C2
S11312F00F900FBE0F9008950F920FB6F8940F92AF
S11313001F9211242F923F924F925F926F927F927D
S11313108F929F92AF92BF92CF92DF92EF92FF9201
S11313200F931F932F933F934F935F936F937F93E9
S11313308F939F93AF93BF93CF93DF93EF93FF93D9
S1131340A091BB06B091BC060DB60D920EB60D92DF
S11313500E940411882311F00E94E512A091BB069B
S1131360B091BC06CD91CDBFDD91DEBFFF91EF9171
S1131370DF91CF91BF91AF919F918F917F916F91A9
S11313805F914F913F912F911F910F91FF90EF909B
S1131390DF90CF90BF90AF909F908F907F906F9091
S11313A05F904F903F902F901F900F900FBE0F9023
S11313B008950E947C091895FC010FB6F8940F92C9
S11313C0228D0F900FBE81E0938D291380E0089544
S11313D0FC01448D4423C1F026813781240F311D43
S11313E037832683A281B3812A173B0720F020810B
S11313F031813783268336812781862F972F632F68
S1131400722F50E00E94E21908951F93CF93DF9347
S1131410EC01142F4C8D442361F488819981009749
S113142009F045C08A819B810E94AA141B821A82FA
S113143045C01123B9F48C819D8150E00E94E219CA
S11314402C8D8C819D81820F911D9D838C832A819B
S11314503B818217930768F1888199819D838C83EE
S113146080E02CC08E819F8150E00E94E2194C8D57
S113147050E0509541955F4F8E819F81840F951F59
S11314809F838E83288139818217930730F48A8160
S11314909B81840F951F9F838E83123061F48A8D04
S11314A0882359F08A8D81508A8F80E007C080E0BC
S11314B005C080E003C080E001C080E09A8D9F5F9A
S11314C09A8FDF91CF911F9108950F931F93CF931C
S11314D0DF93EC010FB6F8940F928E8D1816C4F4B6
S11314E08989882329F414C08989882321F410C0A8
S11314F08E010F5E1F4FC8010E948413882311F0D0
S11315000E9443148E8D81508E8F8E8D181664F335
S11315108FEF8E8F0F900FBE0FB6F8940F928D8DB4
S11315201816C4F48885882329F414C08885882370
S113153021F410C08E01085F1F4FC8010E9484135C
S1131540882311F00E9443148D8D81508D8F8D8DD1
S1131550181664F38FEF8D8F0F900FBEDF91CF912C
S11315601F910F910895CF93DF93EC010FB6F89478
S11315700F92488159812B8D30E0EC8DF0E02E9F45
S1131580C0012F9F900D3E9F900D1124840F951F35
S11315909B838A831A8E5D834C83C9010197E89FDC
S11315A09001E99F300DF89F300D1124240F351F51
S11315B03F832E838FEF8D8F8E8F662361F4888512
S11315C0882389F0CE0108960E948413813059F44F
S11315D00E94230908C0CE0108960E941107CE017B
S11315E041960E9411070F900FBE81E0DF91CF91C9
S11315F008950F931F93CF93DF93182F062F8823FB
S1131600F9F08FE190E00E943506EC010097D9F0E3
S1131610019FC001112401960E9435069983888395
S1131620009741F01B8F0C8FCE0161E00E94B30A3A
S1131630CE010BC0CE010E946B0680E090E005C095
S113164080E090E002C080E090E0DF91CF911F91B4
S11316500F910895CF93C62F60E042E00E94F90AEB
S1131660009711F0FC01C28FCF9108958F929F9241
S1131670BF92CF92DF92EF92FF920F931F93CF937B
S1131680DF9300D000D00F92CDB7DEB78C014B01B1
S11316905D834C83E22EFF24BB24B394CC24DD244D
S11316A06894C3F8C80ED91E0FB6F8940F92F801C7
S11316B0928D838D981718F0F2E0EF16D1F4C801DB
S11316C0B4014E2D0E94050AF8019189992349F02D
S11316D0C80141960E948413813039F40E94230981
S11316E004C0882311F00E9423090F900FBE81E0EB
S11316F04CC08C819D81009721F40F900FBE80E037
S113170044C0FF2029F4CE0101960E940914FB2C49
S11317100F900FBE0E94EC100FB6F8940F92F801D0
S1131720858D8F3F09F4158EF801868D8F3F09F45E
S1131730168E0F900FBECE010196BE016C5F7F4FD7
S11317400E9414148823D9F4C8010E94DC09882358
S113175081F06C817D81C6010E944313C8010E94FF
S1131760650A0E94C411882309F09ECF0E942309B0
S11317709BCFC8010E94650A0E94C41195CFC8017D
S11317800E94650A0E94C41180E00F900F900F9090
S11317900F900F90DF91CF911F910F91FF90EF90D9
S11317A0DF90CF90BF909F908F900895CF93DF9359
S11317B08FE190E00E943506EC010097F9F01B825E
S11317C01A82198218821D821C821F821E821A8E1E
S11317D081E08B8F1C8E8FEF8D8F8E8FCE010896BC
S11317E00E941107CE0141960E941107CE0160E0CC
S11317F070E040E050E020E00E94360B8C2F9D2FDB
S1131800DF91CF9108950F931F93CF93DF93EC0152
S11318108A019A8D8B8D981710F0223021F5CE0114
S1131820422F0E94050A882331F00115110519F091
S113183081E0F80180838E8D8F3F81F4898988232C
S1131840A1F0CE0141960E948413882381F00115F2
S1131850110579F081E0F80180830CC08E8D8F5FD3
S11318608E8F81E007C080E005C081E003C081E085
S113187001C081E0DF91CF911F910F9108958F9264
S11318809F92BF92CF92DF92EF92FF920F931F939A
S1131890CF93DF9300D000D00F92CDB7DEB78C0189
S11318A04B015D834C83B22EFF24EE24E3940F2E70
S11318B0F1E1CF2EDD24F02DC80ED91E0FB6F89419
S11318C00F92F801828D8823A1F1E680F780C80188
S11318D0B4010E94E809BB20D1F4F801828D815043
S11318E0828F80819181009729F40E940315F80169
S11318F093838283F80180858823B9F0C801089610
S11319000E948413813089F40E9423090EC0F801D7
S1131910F782E6828189882341F0C80141960E94BA
S11319208413882311F00E9423090F900FBE81E0D5
S11319305FC08C819D81009721F40F900FBE80E0E1
S113194057C0FF2029F4CE0101960E940914FE2CF1
S11319500F900FBE0E94EC100FB6F8940F92F8018E
S1131960858D8F3F09F4158EF801868D8F3F09F41C
S1131970168E0F900FBECE010196BE016C5F7F4F95
S11319800E941414882371F50FB6F8940F92F8018D
S1131990828D0F900FBE8823F9F4F8018081918124
S11319A0009751F40FB6F8940F92F8018281938155
S11319B00E944C140F900FBE6C817D81C6010E9461
S11319C04313C8010E94650A0E94C411882309F0C8
S11319D075CF0E94230972CFC8010E94650A0E9434
S11319E0C4116CCFC8010E94650A0E94C41180E032
S11319F00F900F900F900F900F90DF91CF911F9148
S1131A000F91FF90EF90DF90CF90BF909F908F90B9
S1131A1008950F931F93CF93DF93EC018A018A8D6E
S1131A208823F1F0CE010E94E8098A8D81508A8FC3
S1131A308D8D8F3F81F488858823A1F0CE0108968F
S1131A400E948413882381F00115110579F081E047
S1131A50F80180830CC08D8D8F5F8D8F81E007C06E
S1131A6080E005C081E003C081E001C081E0DF9136
S1131A70CF911F910F9108950F931F93CF93DF93ED
S1131A80EC018A8D882349F00E811F81CE010E94CA
S1131A90E8091F830E8381E001C080E0DF91CF91CC
S1131AA01F910F9108950FB6F8940F92FC01828D47
S1131AB00F900FBE0895FC010FB6F8940F92928D0B
S1131AC00F900FBE838D891B0895FC01828D0895AC
S1131AD0CF93DF93EC0188819981009711F00E94E4
S1131AE06B06CE010E946B06DF91CF910895FC0135
S1131AF0928D81E0911180E00895FC01228D81E0B6
S1131B00938D291380E00895EF92FF920F931F9312
S1131B10CF93DF93EC017B018A01F8940E94DC09E6
S1131B20882379F00115110549F0BE01685F7F4FE4
S1131B30C8010E94F30278948CEF1FC0789480E06F
S1131B401CC07894F8949A8D8B8D981780F4CE01EC
S1131B50B70140E00E94050A8989882351F0CE012B
S1131B6041960E946504882331F481E005C080E039
S1131B7003C081E001C08BEF7894DF91CF911F9176
S1131B800F91FF90EF900895CF93DF93EC01F894B9
S1131B908A8D882379F44115510549F0BE016F5EA1
S1131BA07F4FCA010E94F30278948CEF35C0789479
S1131BB080E032C07894F8948A8D882339F14C8D72
S1131BC02E813F81240F311D3F832E83EA81FB81C7
S1131BD02E173F0720F0888199819F838E838A8DF9
S1131BE081508A8F3E812F81862F972F632F722FEA
S1131BF050E00E94E2198885882351F0CE010896AE
S1131C000E946504882331F481E005C080E003C0AC
S1131C1081E001C08BEF7894DF91CF9108951F93F9
S1131C20CF93DF93EC01142F9A8D8B8D981788F442
S1131C30CE0140E00E94050A112359F489898823C2
S1131C4041F0CE0141960E94650411E0882309F415
S1131C5010E0812FDF91CF911F9108950F931F936F
S1131C60CF93DF93EC01862F972F8A012A8D2223AD
S1131C7049F14C8D2E813F81240F311D3F832E83EA
S1131C80EA81FB812E173F0720F0288139813F83A9
S1131C902E832A8D21502A8F6E817F8150E00E94ED
S1131CA0E219F8018081882379F48885882371F00A
S1131CB0CE0108960E946504882351F081E0F80162
S1131CC0808307C080E005C081E003C081E001C0DB
S1131CD081E0DF91CF911F910F910895E091C906A2
S1131CE0F091CA068081882339F48FEF9FEF909397
S1131CF07E0080937D000895E091C906F091CA06A4
S1131D000580F681E02D0680F781E02D82819381A4
S1131D1090937E0080937D000895CF93DF93EC0130
S1131D20E091BB06F091BC06938382838091C30645
S1131D309091C406C817D90768F48091C70690919A
S1131D40C8066091BB067091BC066E5F7F4F0E940F
S1131D50420717C08091C9069091CA066091BB06DC
S1131D607091BC066E5F7F4F0E94420780917D0098
S1131D7090917E00C817D90720F4D0937E00C093B9
S1131D807D00DF91CF9108952F923F924F925F9201
S1131D906F927F928F929F92BF92CF92DF92EF9237
S1131DA0FF920F931F93CF93DF931C014B01EA0122
S1131DB02901B02E8FE290E00E9435068C01009735
S1131DC009F4D0C0C114D10409F0E3C0CE010E94CB
S1131DD03506F801908F878B009709F0DDC0C801A4
S1131DE00E946B068FEFC3C0FD019D919993908172
S1131DF0992311F08150C1F7F80114A6CB2DF6E018
S1131E00FB1508F4C6E0F801C68BC5A716A6CC24BA
S1131E10DD246894C1F8C00ED11EC6010E941F07BC
S1131E20C8010C960E941F07F8011187008787E0FC
S1131E3090E08C1B910995878487138B028BC301D7
S1131E40B101A2010E945D08F80191838083E1142D
S1131E50F10419F0F701118300830FB6F8940F927F
S1131E608091C5068F5F8093C5068091BB069091D3
S1131E70BC060097D9F51093BC060093BB0680916D
S1131E80C506813009F041C0C0E0D0E0CE01880F22
S1131E90991F880F991F880F991F8C0F9D1F8453BA
S1131EA0994F0E9411072196C730D10579F7CBE0ED
S1131EB0D7E0CE010E9411070F2EF4E1EF2EF7E0D8
S1131EC0FF2EF02DC7010E9411078DE197E00E94BB
S1131ED0110786E297E00E941107D093CA06C093C7
S1131EE0C906F092C806E092C7060FC08091C106E9
S1131EF0882359F4E091BB06F091BC068689B81694
S1131F0020F01093BC060093BB068091CB068F5F34
S1131F108093CB06F80186899091C206981710F435
S1131F208093C20690E09C01220F331F220F331FBF
S1131F30220F331F820F931F8453994FB6010E94BF
S1131F4023070F900FBE8091C106882369F0E091AA
S1131F50BB06F091BC0686898B1540F40E942309C8
S1131F6081E005C08FEF03C081E001C081E0DF9113
S1131F70CF911F910F91FF90EF90DF90CF90BF9082
S1131F809F908F907F906F905F904F903F902F9095
S1131F900895FC01D08EC78A9E0121503040F8017B
S1131FA08789908D3C01620E731EF4018081F801D3
S1131FB0818FF4018081882309F41ECFE8016A9699
S1131FC0D401119683E110CF0F931F93CF93DF9326
S1131FD00FB6F8940F92009729F40091BB06109164
S1131FE0BC0601C08C01E8012296CE010E94740750
S1131FF0F80184899589009721F0C8010C960E9404
S1132000740786E297E0BE010E9423078091C6060A
S11320108F5F8093C6068091CB068F5F8093CB063B
S11320200F900FBE8091C106882389F08091BB0672
S11320309091BC060817190719F40E94230907C0D8
S11320400FB6F8940F920E946E0E0F900FBEDF91A0
S1132050CF911F910F9108950FB6F8940F920097A6
S113206029F4E091BB06F091BC0601C0FC010F907D
S11320700FBE86890895EF92FF921F93CF93DF934B
S1132080673008F066E00FB6F8940F92009729F4D1
S1132090C091BB06D091BC0601C0EC012DA526174A
S11320A009F461C0261788F48091BB069091BC06A0
S11320B0C817D907A1F0E091BB06F091BC0611E066
S11320C08689681768F410E00BC08091BB06909174
S11320D0BC0611E0C817D90719F010E001C010E0E0
S11320E08E89281709F46E8B6DA72C853D853323C3
S11320F034F027E030E0261B31093D872C8790E03F
S11321009C01220F331F220F331F220F331F820F14
S1132110931F8453994F2A853B8528173907F9F46F
S1132120EE24FF246894E1F8EC0EFD1EC7010E9422
S113213074078E899091C206981710F48093C20692
S113214090E09C01220F331F220F331F220F331FF5
S1132150820F931F8453994FB7010E9423071130B4
S113216011F40E9423090F900FBEDF91CF911F91AC
S1132170FF90EF900895AF92BF92CF92DF92EF92CB
S1132180FF920F9387E492E168E770E045E550E041
S113219020E030E000E0EE24FF24CC24DD24AA2457
S11321A0BB240E94C40E813049F4F8948093C10684
S11321B01092C4061092C3060E94ED080F91FF907E
S11321C0EF90DF90CF90BF90AF900895F894109265
S11321D0C1060E94220908958091BD068F5F8093F5
S11321E0BD0608950FB6F8940F928091C30690919E
S11321F0C4060F900FBE08958091C3069091C40643
S113220008958091C5060895CF92DF92EF92FF92D0
S11322100F931F93CF93DF938091BD06882309F01A
S11322209AC08091C3069091C40601969093C40607
S11322308093C306C090C306D090C406C114D104D1
S1132240B9F48091C9069091CA062091C7063091CD
S1132250C8063093CA062093C9069093C806809393
S1132260C7068091BE068F5F8093BE060E946E0EE5
S113227080917D0090917E00C816D90620F4FF2439
S113228054C0FE2C03C0FF24EE24E394E091C9065D
S1132290F091CA068081882339F48FEF9FEF9093E1
S11322A07E0080937D0041C0E091C906F091CA068A
S11322B00580F681E02DC681D7818A819B81C8166D
S11322C0D90628F490937E0080937D002EC08E0161
S11322D00E5F1F4FC8010E9474078C899D89009767
S11322E021F0CE010C960E9474078E899091C2064B
S11322F0981710F48093C20690E09C01220F331FBC
S1132300220F331F220F331F820F931F8453994FC1
S1132310B8010E942307E091BB06F091BC069E8998
S11323208689981708F0ADCFB1CFE091BB06F09144
S1132330BC06868990E0FC01EE0FFF1FEE0FFF1F25
S1132340EE0FFF1F8E0F9F1FFC01E453F94F808196
S1132350823040F409C08091C0068F5F8093C0062C
S1132360FF2402C0FF24F3948091BF06882311F058
S1132370FF24F3948F2DDF91CF911F910F91FF9044
S1132380EF90DF90CF900895DF92EF92FF920F933A
S11323901F93CF93DF930FB6F8940F928091BD06ED
S11323A081508093BD068091BD06882309F062C0E8
S11323B08091C506882391F560C0E0912207F091D1
S11323C02307C681D781CE010C960E9474078E0123
S11323D00E5F1F4FC8010E9474078E899091C20638
S11323E0981710F48093C20690E09C01220F331FCB
S11323F0220F331F220F331F820F931F8453994FD1
S1132400B8010E942307E091BB06F091BC069E89A7
S11324108689981758F0D092BF0608C00F2EFDE1A8
S1132420EF2EF7E0FF2EF02DDD24D394F701808109
S1132430882319F68091C0068823A1F08091C006F4
S1132440882381F0C1E00E940411882311F0C09315
S1132450BF068091C00681508093C0068091C0065B
S1132460882389F78091BF06813031F40E942309C3
S113247081E003C080E001C080E00F900FBEDF91D7
S1132480CF911F910F91FF90EF90DF90089506E296
S113249017E00F2EFCECEF2EF6E0FF2EF02D28C0F7
S11324A00E94EC10F801C0810E94C411CC2301F1F8
S11324B00FB6F8940F92E0912B07F0912C07C68188
S11324C0D781CE0102960E9474078091C50681507F
S11324D08093C5068091C60681508093C6060F90EE
S11324E00FBE8F89988D0E946B06CE010E946B06E9
S11324F08091C6068823A1F6F70180818230C0F35B
S11325000E942309F5CFCF93DF93EC010097B1F03C
S11325100E94EC108091C3069091C406C80FD91F85
S11325208091BB069091BC0602960E947407CE016E
S11325300E948D0E0E94C411882311F40E94230965
S1132540DF91CF9108950F931F93CF93DF938C0165
S1132550EB010E94EC102091C3063091C406F801EF
S113256080819181C80FD91F2817390748F4C817EB
S1132570D90710F5D183C0832C173D0790F407C009
S1132580C817D907A8F02C173D0790F015C0809103
S1132590BB069091BC0602960E947407CE010E946D
S11325A08D0E0E94C411882359F40E94230908C087
S11325B0F801D183C083EBCFF801D183C083F1CF7D
S11325C0DF91CF911F910F9108958091BD068823CB
S11325D021F081E08093BF0608951092BF06809198
S11325E0C20690E0FC01EE0FFF1FEE0FFF1FEE0F7F
S11325F0FF1F8E0F9F1FFC01E453F94F8081882336
S1132600B9F48091C20681508093C2068091C206BB
S113261090E0FC01EE0FFF1FEE0FFF1FEE0FFF1FF8
S11326208E0F9F1FFC01E453F94F8081882349F3E7
S11326308091C20690E0FC01EE0FFF1FEE0FFF1F1A
S1132640EE0FFF1FE80FF91FE453F94FA181B28188
S113265012960D90BC91A02DB283A183CF01039655
S1132660A817B90731F412968D919C911397928310
S113267081830180F281E02D868197819093BC064D
S11326808093BB060895CF93DF93EB016091BB0663
S11326907091BC06645F7F4F0E9442078091BB0625
S11326A09091BC0602960E9474078091C306909193
S11326B0C4068C0F9D1F0E948D0EDF91CF9108954B
S11326C0CF93DF93EA01E091BB06F091BC067068FA
S11326D0758764876091BB067091BC06645F7F4F09
S11326E00E9423078091BB069091BC0602960E942B
S11326F074078091C3069091C4068C0F9D1F0E949D
S11327008D0EDF91CF9108950F931F93CF93DF9395
S1132710DC011596ED91FC91169706811781E8016D
S11327202C96CE010E9474078091BD068823E9F49B
S1132730E8012296CE010E947407F80186899091DF
S1132740C206981710F48093C20690E09C01220FF1
S1132750331F220F331F220F331F820F931F845303
S1132760994FBE010E94230705C08DE197E0BE0189
S11327700E942307E091BB06F091BC06D80156964F
S11327809C9156978689891720F481E08093BF062F
S113279001C080E0DF91CF911F910F9108950F93B5
S11327A01F93CF93DF937068FC0171836083C681AC
S11327B0D7810E9474078E010E5F1F4FC8010E94CB
S11327C074078E899091C206981710F48093C206FC
S11327D090E09C01220F331F220F331F220F331F5F
S11327E0820F931F8453994FB8010E942307E091ED
S11327F0BB06F091BC069E898689891720F481E086
S11328008093BF0601C080E0DF91CF911F910F91AB
S11328100895FC018091BE0680838091C306909147
S1132820C406928381830895FC01DB010FB6F894FA
S11328300F924091C3065091C4068091BE069081C8
S1132840981729F08181928148175907B0F4818142
S113285092816D917C9111979A01281B390B26174F
S1132860370768F4841B950B860F971F8D939C93F1
S1132870CF010E94091480E003C081E001C081E01F
S11328800F900FBE089581E08093BF060895809154
S1132890BB069091BC0608950F931F93CF93DF93CB
S11328A0EC01009709F451C08E89E091BB06F091C8
S11328B0BC069689891708F048C02C853D853323CA
S11328C05CF0E091BB06F091BC06968927E030E00D
S11328D0291B31093D872C8790E09C01220F331F6F
S11328E0220F331F220F331F820F931F8453994FDC
S11328F02A853B852817390711F58E010E5F1F4F76
S1132900C8010E947407E091BB06F091BC06868959
S11329108E8B9091C206981710F48093C20690E0B3
S11329209C01220F331F220F331F220F331F820FEC
S1132930931F8453994FB8010E94230706C0E09166
S1132940BB06F091BC0686898E8BDF91CF911F91D7
S11329500F9108950F931F93CF93DF93EC0100978A
S113296081F18EA581508EA72E899DA5291759F135
S1132970882359F58E010E5F1F4FC8010E9474070A
S11329804DA54E8B242F30E087E090E0821B930B03
S11329909D878C878091C206841710F44093C206E9
S11329A0C901880F991F880F991F880F991F280F35
S11329B0391FC9018453994FB8010E94230781E04C
S11329C005C080E003C080E001C080E0DF91CF91CA
S11329D01F910F910895E091BB06F091BC06848588
S11329E09585E091BB06F091BC06A091BB06B09121
S11329F0BC0656964C91569727E030E0241B3109CB
S1132A003587248708958091BB069091BC06009772
S1132A1039F0E091BB06F091BC0686A58F5F86A7CE
S1132A208091BB069091BC060895813091F081306D
S1132A3018F0823039F51AC081E061E04FE750E0C8
S1132A400E94B20182E061E040E950E00E94B201DC
S1132A50089581E061E041EA50E00E94B20182E021
S1132A6061E042EB50E00E94B201089581E061E030
S1132A7043EC50E00E94B20182E061E044ED50E09A
S1132A800E94B201089585EE90E00E943702809181
S1132A9035079091360760E870E040E020E00FEFE2
S1132AA01FEF0E94B30487FFF2CF0E94D40084EF8B
S1132AB091E00E9483120E94D60084EF91E00E946C
S1132AC08312E5CF8BEF90E00E943702C6E7D1E096
S1132AD08E010250104080E00E945200BC0180E050
S1132AE090E00E94B41820E030EC4FE754E40E94D8
S1132AF0201820E030E046E153E40E944219462FBA
S1132B00572F682F792FCB01BA010E94881888812A
S1132B1090E086179707C1F06883F80180818823C5
S1132B2041F4809135079091360768E070E00E9487
S1132B303205809133079091340760E070E040E003
S1132B4050E020E00E94360B84E690E00E9483125D
S1132B50C2CF80E191E00E94370205E711E0C4E7AB
S1132B60D1E00F2EF6E7EF2EF1E0FF2EF02D6701F6
S1132B700894C11CD11CBB246894B1F8809133071C
S1132B809091340760E070E04FEF5FEF20E00E9427
S1132B903F0C882399F3F80180818534C1F4F7014F
S1132BA02081F6019081291790F0B8828091350731
S1132BB09091360762E070E00E94320580913507FB
S1132BC09091360760E870E00E943205D7CF988173
S1132BD09230A1F6843431F0F7019081F6018081BE
S1132BE0981760F6809135079091360760E870E099
S1132BF00E941F051882809135079091360769E578
S1132C0070E00E943205BACF89E291E00E94370257
S1132C100F2EF4E7EF2EF1E0FF2EF02D0F2EF6E746
S1132C20AF2EF1E0BF2EF02D0F2EF7E78F2EF1E03F
S1132C309F2EF02D0F2EF5E7CF2EF1E0DF2EF02D95
S1132C4080913507909136076FE770E041E020E00E
S1132C500FEF1FEF0E94B304C82F80FF03C080E072
S1132C600E941515C1FF03C082E00E941515C2FF22
S1132C7003C081E00E941515C3FF0DC0F7018081D8
S1132C80882349F4F501208130E040E050E081E000
S1132C9063E00E94E601C4FF0DC0F7018081882330
S1132CA049F4F401208130E040E050E081E069E043
S1132CB00E94E601C5FF0BC0F7018081813039F421
S1132CC060913007675F40912F070E94A901C6FFFA
S1132CD0B7CFF7018081882309F0B2CF81E060E1AA
S1132CE0F60140810E94A901ABCFCF93DF9300D0BE
S1132CF0CDB7DEB781E090E0BE016E5F7F4F0E94EA
S1132D00EF0081E491E00E94370204E711E00F2E06
S1132D10F7E7CF2EF1E0DF2EF02D0F2EFDEF6F2E13
S1132D20FFEF7F2EF02D6C0C7D1C0F2EF5E7EF2EA0
S1132D30F1E0FF2EF02D0F2EF5E4AF2EF02D0F2E27
S1132D40F4E4BF2EF02D992493948091310790914F
S1132D503207BE016F5F7F4F4FEF5FEF20E00E94AD
S1132D603F0C882391F3F8018081813009F446C037
S1132D70813018F0823049F72FC08981833471F48F
S1132D80F8019082109230071A8280913507909151
S1132D90360764E070E00E943205D7CF8435A9F687
S1132DA0F7018081853411F4B08202C0F701A0825A
S1132DB0809135079091360760E470E00E943205F7
S1132DC0809133079091340760E070E040E050E078
S1132DD020E00E94360BB9CF8981833509F0B5CF45
S1132DE0F701B082809133079091340760E070E07E
S1132DF040E050E020E00E94360BA7CF89818F3459
S1132E00E9F46A81F601608381E090E00E94FF00AA
S1132E10F3011082809135079091360769E570E0DF
S1132E200E943205809133079091340760E070E08E
S1132E3040E050E020E00E94360B87CF833459F401
S1132E40F8011082809135079091360769E570E0AA
S1132E500E9432057ACF982F90539A3008F075CF9C
S1132E6020913007233008F070CF2F5F2093300774
S1132E702A81220F322F330F330F230F920F9A839D
S1132E8080932F07809135079091360760E270E0B8
S1132E900E9432055ACFCF93DF930F92CDB7DEB79E
S1132EA019828BE591E00E943702CE0101960E94BF
S1132EB02E02882361F08091310790913207BE0180
S1132EC06F5F7F4F4FEF5FEF20E00E94360B84E689
S1132ED090E00E948312E9CF0E94D8000E9449002A
S1132EE00E94730160E875E280E090E00E94F701BF
S1132EF088E791E00E94370281E090E067E771E0A3
S1132F000E94EF000895AF92BF92CF92DF92EF92AA
S1132F10FF920F930E946C1781E060E043E00E94EF
S1132F20F90A90933407809333078AE061E040E024
S1132F300E94F90A90933207809331070E949F04FC
S1132F40909336078093350783E495E16DE871E04B
S1132F5044E650E020E030E006E00F2EF1E4EF2EEE
S1132F60F7E0FF2EF02DCC24DD24AA24BB240E94FC
S1132F70C40E8BE497E165E971E044E650E020E09B
S1132F8030E005E00F2EFBE3EF2EF7E0FF2EF02DEF
S1132F900E94C40E85E796E160EA71E044E650E0E1
S1132FA020E030E004E00F2EFDE3EF2EF7E0FF2EEB
S1132FB0F02D0E94C40E89EA95E16CEA71E044E6C2
S1132FC050E020E030E003E00F2EFFE3EF2EF7E0C7
S1132FD0FF2EF02D0E94C40E82E695E167EB71E0AE
S1132FE044E650E020E030E002E00F2EF9E3EF2E5B
S1132FF0F7E0FF2EF02D0E94C40E84E096E16EEB04
S113300071E044E650E020E030E001E00F2EF7E309
S1133010EF2EF7E0FF2EF02D0E94C40E80913507AD
S11330209091360769E570E00E9432050E94BB105A
S11330300F91FF90EF90DF90CF90BF90AF900895E5
S11330400CD0E6C0DED040F0D5D030F021F45F3FA4
S113305019F0C7C0511110C1CAC0EBD098F399231D
S1133060C9F35523B1F3951B550BBB27AA27621748
S11330707307840738F09F5F5F4F220F331F441F8D
S1133080AA1FA9F333D00E2E3AF0E0E830D09150C5
S11330905040E695001CCAF729D0FE2F27D0660FB2
S11330A0771F881FBB1F261737074807AB07B0E8F1
S11330B009F0BB0B802DBF01FF2793585F4F2AF007
S11330C09E3F510568F08DC0D7C05F3FECF3983E3A
S11330D0DCF3869577956795B795F7959F5FC9F764
S11330E0880F911D9695879597F90895E1E0660FED
S11330F0771F881FBB1F621773078407BA0720F066
S1133100621B730B840BBA0BEE1F88F7E0950895CE
S113311098D088F09F5790F0B92F9927B751A0F015
S1133120D1F0660F771F881F991F1AF0BA95C9F757
S113313012C0B13081F09FD0B1E008959CC0672FD8
S1133140782F8827B85F39F0B93FCCF38695779507
S11331506795B395D9F73EF49095809570956195F0
S11331607F4F8F4F9F4F0895E89409C097FB3EF41B
S113317090958095709561957F4F8F4F9F4F9923C0
S1133180A9F0F92F96E9BB279395F695879577953E
S11331906795B795F111F8CFFAF4BB0F11F460FFFE
S11331A01BC06F5F7F4F8F4F9F4F16C0882311F056
S11331B096E911C0772321F09EE8872F762F05C06A
S11331C0662371F096E8862F70E060E02AF09A9505
S11331D0660F771F881FDAF7880F9695879597F9FA
S11331E0089597F99F6780E870E060E008959FEF85
S11331F080EC089500240A9416161706180609068A
S1133200089500240A941216130614060506089558
S1133210092E0394000C11F4882352F0BB0F40F4E0
S1133220BF2B11F460FF04C06F5F7F4F8F4F9F4F20
S1133230089557FD9058440F551F59F05F3F71F0A2
S11332404795880F97FB991F61F09F3F79F0879509
S11332500895121613061406551FF2CF4695F1DF92
S113326008C0161617061806991FF1CF8695710522
S1133270610508940895E894BB2766277727CB0156
S113328097F908950BD0C4CFB5DF28F0BADF18F052
S1133290952309F0A6CFABCF1124EECFCADFA0F35C
S11332A0959FD1F3950F50E0551F629FF001729FD7
S11332B0BB27F00DB11D639FAA27F00DB11DAA1FF6
S11332C0649F6627B00DA11D661F829F2227B00D43
S11332D0A11D621F739FB00DA11D621F839FA00DCE
S11332E0611D221F749F3327A00D611D231F849F1E
S11332F0600D211D822F762F6A2F11249F57504075
S11333008AF0E1F088234AF0EE0FFF1FBB1F661F0F
S1133310771F881F91505040A9F79E3F510570F0C8
S113332060CFAACF5F3FECF3983EDCF386957795A8
S11333306795B795F795E7959F5FC1F7FE2B880FC3
S1133340911D9695879597F90895A1E21A2EAA1BC7
S1133350BB1BFD010DC0AA1FBB1FEE1FFF1FA21741
S1133360B307E407F50720F0A21BB30BE40BF50B3E
S1133370661F771F881F991F1A9469F760957095C7
S1133380809590959B01AC01BD01CF01089597FBF9
S1133390092E05260ED057FD04D0D7DF0AD0001C15
S11333A038F450954095309521953F4F4F4F5F4FDE
S11333B00895F6F790958095709561957F4F8F4F9E
S11333C09F4F0895FB01DC0102C001900D92415012
S11333D05040D8F70895FB019F01E8944230C4F0AF
S11333E04532B4F44A3029F497FB1EF49095819544
S11333F09F4F642F77270E941C1A805D8A330CF03C
S1133400895D8193CB010097A1F716F45DE2519396
S11334101082C9010C940C1ADC01FC01672F719114
S11334207723E1F7329704C07C916D9370836291A6
S1133430AE17BF07C8F30895AA1BBB1B51E107C011
S1133440AA1FBB1FA617B70710F0A61BB70B881F30
S1133450991F5A95A9F780959095BC01CD010895BF
S1073460F894FFCF0A
S1133464496E744D6174680051436F6E734E42002B
S11334745150726F644E420049444C4500FFFF436F
S11334843A20202020543A2020202041533A20007E
S1133494202054433A432020202041543A542020ED
S11334A400202020202020543A20202020202020E6
S11334B4200020204F4B3A4F20202020434E3A43F3
S11334C420200020212121414C41524D494E4721C5
S11334D42121200020202020202041533A53202061
S11334E42020202000545F416C61726D205374616C
S11334F472746564202E2E2E0D0A00545F54656D7B
S1133504702053746172746564202E2E2E0D0A008B
S1133514545F537973436865636B205374617274A5
S11335246564202E2E2E0D0A00545F446973706C5A
S113353461792053746172746564202E2E2E0D0AF1
S113354400545F4576656E745465726D20537461DE
S113355472746564202E2E2E0D0A00545F55736513
S1133564725465726D2053746172746564202E2ED6
S11335742E0D0A000045006453797374656D20535D
S1133584746172746564202E2E2E0D0A00545F41FA
S11335946C61726D00545F557365725465726D008D
S11335A4545F4576656E745465726D00545F537947
S11335B473436865636B00545F54656D7000545FB6
S10B35C4446973706C61790025
S9030000FC
