:100000000C942A000C941F010C944C010C94740164
:100010000C9472000C9447000C9447000C94470019
:100020000C9447000C9447000C9447000C94470034
:100030000C9447000C9447000C9447000C94470024
:100040000C9447000C9447000C9447000C94470014
:100050000C94470011241FBECFE5D8E0DEBFCDBF12
:1000600010E0A0E6B0E0E4E6F3E002C005900D92F7
:10007000A036B107D9F710E0A0E6B0E001C01D92AC
:10008000A736B107E1F70E941A010C94B0010C9455
:100090000000809162008BBBA89AA89880916100B3
:1000A0008BBBA99AA998809160008BBBAA9AAA9849
:1000B00008951BBAA89AA8981BBAA99AA9981BBA1E
:1000C000AA9AAA9808958CE783BD8CE085BD08950F
:1000D00014BC89B7806889BF089589B78F7789BFB5
:1000E00014BC08951F920F920FB60F9211242F93F4
:1000F0003F934F935F936F937F938F939F93AF93B0
:10010000BF93CF93DF93EF93FF9380916300909120
:100110006400019690936400809363008091630073
:100120009091640084369105E9F580916500909185
:1001300066002AE030E0B9010E949C0180936200D1
:100140008091650090916600E4E6F0E0BF010E94B6
:100150009C01B9010E949C0160936100809165003F
:1001600090916600C8EED3E0BE010E949C01BF01E1
:100170000E949C01609360000E944900809165008C
:10018000909166000196909366008093650080913F
:10019000650090916600BE010E949C0190936600EC
:1001A00080936500809163009091640064E670E044
:1001B0000E949C019093640080936300FF91EF91F3
:1001C000DF91CF91BF91AF919F918F917F916F916F
:1001D0005F914F913F912F910F900FBE0F901F9005
:1001E000189585B7826085BF85B78E7F85BF8BB731
:1001F00080648BBF929A85B7886085BF85B78B7FF7
:1002000085BF8BB780688BBF939A84B78F7B84BF81
:100210008BB780628BBFC29A08958AB38F6E8ABBF8
:100220001BBA84B3876084BB0E9463000E94F10004
:10023000789408950E940D010E945900FFCF1F92EB
:100240000F920FB60F9211242F933F934F935F930A
:100250006F937F938F939F93AF93BF93EF93FF938E
:1002600010926600109265000E946D000E94590075
:100270008BB380588BBBFF91EF91BF91AF919F9152
:100280008F917F916F915F914F913F912F910F903F
:100290000FBE0F901F9018951F920F920FB60F92DE
:1002A00011242F933F934F935F936F937F938F937B
:1002B0009F93AF93BF93EF93FF930E9468009BB30C
:1002C00080E489278BBBFF91EF91BF91AF919F9104
:1002D0008F917F916F915F914F913F912F910F90EF
:1002E0000FBE0F901F9018951F920F920FB60F928E
:1002F00011242F933F934F935F936F937F938F932B
:100300009F93AF93BF93EF93FF930E946D009BB3B6
:1003100080E289278BBBFF91EF91BF91AF919F91B5
:100320008F917F916F915F914F913F912F910F909E
:100330000FBE0F901F901895AA1BBB1B51E107C061
:10034000AA1FBB1FA617B70710F0A61BB70B881F65
:10035000991F5A95A9F780959095BC01CD010895F4
:04036000F894FFCF3F
:00000001FF
